{
  "contractName": "Login",
  "abi": [
    {
      "inputs": [
        {
          "internalType": "address",
          "name": "",
          "type": "address"
        }
      ],
      "name": "users",
      "outputs": [
        {
          "internalType": "string",
          "name": "name",
          "type": "string"
        },
        {
          "internalType": "string",
          "name": "email",
          "type": "string"
        },
        {
          "internalType": "string",
          "name": "password",
          "type": "string"
        }
      ],
      "stateMutability": "view",
      "type": "function",
      "constant": true
    },
    {
      "inputs": [
        {
          "internalType": "string",
          "name": "_name",
          "type": "string"
        },
        {
          "internalType": "string",
          "name": "_email",
          "type": "string"
        },
        {
          "internalType": "string",
          "name": "_password",
          "type": "string"
        }
      ],
      "name": "registerUser",
      "outputs": [],
      "stateMutability": "nonpayable",
      "type": "function"
    },
    {
      "inputs": [
        {
          "internalType": "address",
          "name": "_address",
          "type": "address"
        }
      ],
      "name": "getUser",
      "outputs": [
        {
          "internalType": "string",
          "name": "",
          "type": "string"
        },
        {
          "internalType": "string",
          "name": "",
          "type": "string"
        },
        {
          "internalType": "string",
          "name": "",
          "type": "string"
        }
      ],
      "stateMutability": "view",
      "type": "function",
      "constant": true
    },
    {
      "inputs": [],
      "name": "userExists",
      "outputs": [
        {
          "internalType": "bool",
          "name": "",
          "type": "bool"
        }
      ],
      "stateMutability": "view",
      "type": "function",
      "constant": true
    },
    {
      "inputs": [
        {
          "internalType": "string",
          "name": "_email",
          "type": "string"
        },
        {
          "internalType": "string",
          "name": "_password",
          "type": "string"
        }
      ],
      "name": "loginUser",
      "outputs": [
        {
          "internalType": "bool",
          "name": "",
          "type": "bool"
        }
      ],
      "stateMutability": "view",
      "type": "function",
      "constant": true
    }
  ],
  "bytecode": "0x608060405234801561001057600080fd5b50611384806100206000396000f3fe608060405234801561001057600080fd5b50600436106100575760003560e01c806322ce12e51461005c5780636f77926b1461008c578063a87430ba146100be578063d637dcfa146100f0578063eae6d4da1461010c575b600080fd5b61007660048036038101906100719190610bb8565b61012a565b6040516100839190610c4b565b60405180910390f35b6100a660048036038101906100a19190610cc4565b6104ed565b6040516100b593929190610d70565b60405180910390f35b6100d860048036038101906100d39190610cc4565b610712565b6040516100e793929190610d70565b60405180910390f35b61010a60048036038101906101059190610dbc565b6108d4565b005b610114610a07565b6040516101219190610c4b565b60405180910390f35b6000806000803373ffffffffffffffffffffffffffffffffffffffff1673ffffffffffffffffffffffffffffffffffffffff168152602001908152602001600020600101805461017990610e92565b9050116101bb576040517f08c379a00000000000000000000000000000000000000000000000000000000081526004016101b290610f0f565b60405180910390fd5b60008060003373ffffffffffffffffffffffffffffffffffffffff1673ffffffffffffffffffffffffffffffffffffffff16815260200190815260200160002060405180606001604052908160008201805461021690610e92565b80601f016020809104026020016040519081016040528092919081815260200182805461024290610e92565b801561028f5780601f106102645761010080835404028352916020019161028f565b820191906000526020600020905b81548152906001019060200180831161027257829003601f168201915b505050505081526020016001820180546102a890610e92565b80601f01602080910402602001604051908101604052809291908181526020018280546102d490610e92565b80156103215780601f106102f657610100808354040283529160200191610321565b820191906000526020600020905b81548152906001019060200180831161030457829003601f168201915b5050505050815260200160028201805461033a90610e92565b80601f016020809104026020016040519081016040528092919081815260200182805461036690610e92565b80156103b35780601f10610388576101008083540402835291602001916103b3565b820191906000526020600020905b81548152906001019060200180831161039657829003601f168201915b5050505050815250509050836040516020016103cf9190610f6b565b6040516020818303038152906040528051906020012081602001516040516020016103fa9190610f6b565b6040516020818303038152906040528051906020012014610450576040517f08c379a000000000000000000000000000000000000000000000000000000000815260040161044790610fce565b60405180910390fd5b826040516020016104619190610f6b565b60405160208183030381529060405280519060200120816040015160405160200161048c9190610f6b565b60405160208183030381529060405280519060200120146104e2576040517f08c379a00000000000000000000000000000000000000000000000000000000081526004016104d99061103a565b60405180910390fd5b600191505092915050565b606080606060008060008673ffffffffffffffffffffffffffffffffffffffff1673ffffffffffffffffffffffffffffffffffffffff16815260200190815260200160002060405180606001604052908160008201805461054d90610e92565b80601f016020809104026020016040519081016040528092919081815260200182805461057990610e92565b80156105c65780601f1061059b576101008083540402835291602001916105c6565b820191906000526020600020905b8154815290600101906020018083116105a957829003601f168201915b505050505081526020016001820180546105df90610e92565b80601f016020809104026020016040519081016040528092919081815260200182805461060b90610e92565b80156106585780601f1061062d57610100808354040283529160200191610658565b820191906000526020600020905b81548152906001019060200180831161063b57829003601f168201915b5050505050815260200160028201805461067190610e92565b80601f016020809104026020016040519081016040528092919081815260200182805461069d90610e92565b80156106ea5780601f106106bf576101008083540402835291602001916106ea565b820191906000526020600020905b8154815290600101906020018083116106cd57829003601f168201915b5050505050815250509050806000015181602001518260400151935093509350509193909250565b600060205280600052604060002060009150905080600001805461073590610e92565b80601f016020809104026020016040519081016040528092919081815260200182805461076190610e92565b80156107ae5780601f10610783576101008083540402835291602001916107ae565b820191906000526020600020905b81548152906001019060200180831161079157829003601f168201915b5050505050908060010180546107c390610e92565b80601f01602080910402602001604051908101604052809291908181526020018280546107ef90610e92565b801561083c5780601f106108115761010080835404028352916020019161083c565b820191906000526020600020905b81548152906001019060200180831161081f57829003601f168201915b50505050509080600201805461085190610e92565b80601f016020809104026020016040519081016040528092919081815260200182805461087d90610e92565b80156108ca5780601f1061089f576101008083540402835291602001916108ca565b820191906000526020600020905b8154815290600101906020018083116108ad57829003601f168201915b5050505050905083565b60008060003373ffffffffffffffffffffffffffffffffffffffff1673ffffffffffffffffffffffffffffffffffffffff168152602001908152602001600020600101805461092290610e92565b905014610964576040517f08c379a000000000000000000000000000000000000000000000000000000000815260040161095b906110a6565b60405180910390fd5b6040518060600160405280848152602001838152602001828152506000803373ffffffffffffffffffffffffffffffffffffffff1673ffffffffffffffffffffffffffffffffffffffff16815260200190815260200160002060008201518160000190816109d2919061127c565b5060208201518160010190816109e8919061127c565b5060408201518160020190816109fe919061127c565b50905050505050565b6000806000803373ffffffffffffffffffffffffffffffffffffffff1673ffffffffffffffffffffffffffffffffffffffff1681526020019081526020016000206001018054610a5690610e92565b905011905090565b6000604051905090565b600080fd5b600080fd5b600080fd5b600080fd5b6000601f19601f8301169050919050565b7f4e487b7100000000000000000000000000000000000000000000000000000000600052604160045260246000fd5b610ac582610a7c565b810181811067ffffffffffffffff82111715610ae457610ae3610a8d565b5b80604052505050565b6000610af7610a5e565b9050610b038282610abc565b919050565b600067ffffffffffffffff821115610b2357610b22610a8d565b5b610b2c82610a7c565b9050602081019050919050565b82818337600083830152505050565b6000610b5b610b5684610b08565b610aed565b905082815260208101848484011115610b7757610b76610a77565b5b610b82848285610b39565b509392505050565b600082601f830112610b9f57610b9e610a72565b5b8135610baf848260208601610b48565b91505092915050565b60008060408385031215610bcf57610bce610a68565b5b600083013567ffffffffffffffff811115610bed57610bec610a6d565b5b610bf985828601610b8a565b925050602083013567ffffffffffffffff811115610c1a57610c19610a6d565b5b610c2685828601610b8a565b9150509250929050565b60008115159050919050565b610c4581610c30565b82525050565b6000602082019050610c606000830184610c3c565b92915050565b600073ffffffffffffffffffffffffffffffffffffffff82169050919050565b6000610c9182610c66565b9050919050565b610ca181610c86565b8114610cac57600080fd5b50565b600081359050610cbe81610c98565b92915050565b600060208284031215610cda57610cd9610a68565b5b6000610ce884828501610caf565b91505092915050565b600081519050919050565b600082825260208201905092915050565b60005b83811015610d2b578082015181840152602081019050610d10565b60008484015250505050565b6000610d4282610cf1565b610d4c8185610cfc565b9350610d5c818560208601610d0d565b610d6581610a7c565b840191505092915050565b60006060820190508181036000830152610d8a8186610d37565b90508181036020830152610d9e8185610d37565b90508181036040830152610db28184610d37565b9050949350505050565b600080600060608486031215610dd557610dd4610a68565b5b600084013567ffffffffffffffff811115610df357610df2610a6d565b5b610dff86828701610b8a565b935050602084013567ffffffffffffffff811115610e2057610e1f610a6d565b5b610e2c86828701610b8a565b925050604084013567ffffffffffffffff811115610e4d57610e4c610a6d565b5b610e5986828701610b8a565b9150509250925092565b7f4e487b7100000000000000000000000000000000000000000000000000000000600052602260045260246000fd5b60006002820490506001821680610eaa57607f821691505b602082108103610ebd57610ebc610e63565b5b50919050565b7f5573657220646f6573206e6f7420657869737421000000000000000000000000600082015250565b6000610ef9601483610cfc565b9150610f0482610ec3565b602082019050919050565b60006020820190508181036000830152610f2881610eec565b9050919050565b600081905092915050565b6000610f4582610cf1565b610f4f8185610f2f565b9350610f5f818560208601610d0d565b80840191505092915050565b6000610f778284610f3a565b915081905092915050565b7f496e76616c696420656d61696c21000000000000000000000000000000000000600082015250565b6000610fb8600e83610cfc565b9150610fc382610f82565b602082019050919050565b60006020820190508181036000830152610fe781610fab565b9050919050565b7f496e76616c69642070617373776f726421000000000000000000000000000000600082015250565b6000611024601183610cfc565b915061102f82610fee565b602082019050919050565b6000602082019050818103600083015261105381611017565b9050919050565b7f5573657220616c72656164792065786973747321000000000000000000000000600082015250565b6000611090601483610cfc565b915061109b8261105a565b602082019050919050565b600060208201905081810360008301526110bf81611083565b9050919050565b60008190508160005260206000209050919050565b60006020601f8301049050919050565b600082821b905092915050565b6000600883026111287fffffffffffffffffffffffffffffffffffffffffffffffffffffffffffffffff826110eb565b61113286836110eb565b95508019841693508086168417925050509392505050565b6000819050919050565b6000819050919050565b600061117961117461116f8461114a565b611154565b61114a565b9050919050565b6000819050919050565b6111938361115e565b6111a761119f82611180565b8484546110f8565b825550505050565b600090565b6111bc6111af565b6111c781848461118a565b505050565b5b818110156111eb576111e06000826111b4565b6001810190506111cd565b5050565b601f82111561123057611201816110c6565b61120a846110db565b81016020851015611219578190505b61122d611225856110db565b8301826111cc565b50505b505050565b600082821c905092915050565b600061125360001984600802611235565b1980831691505092915050565b600061126c8383611242565b9150826002028217905092915050565b61128582610cf1565b67ffffffffffffffff81111561129e5761129d610a8d565b5b6112a88254610e92565b6112b38282856111ef565b600060209050601f8311600181146112e657600084156112d4578287015190505b6112de8582611260565b865550611346565b601f1984166112f4866110c6565b60005b8281101561131c578489015182556001820191506020850194506020810190506112f7565b868310156113395784890151611335601f891682611242565b8355505b6001600288020188555050505b50505050505056fea2646970667358221220fa241cce6213d5bc4793ac35039275c2a62eedbcd44d257c010dfe7832a65ae664736f6c63430008130033",
  "immutableReferences": {},
  "source": "// SPDX-License-Identifier: MIT\r\npragma solidity ^0.8.0;\r\n\r\ncontract Login {\r\n    struct User {\r\n        string name;\r\n        string email;\r\n        string password;\r\n    }\r\n\r\n    mapping(address => User) public users;\r\n\r\n    // Function to register a new user\r\n    function registerUser(string memory _name, string memory _email, string memory _password) public {\r\n        require(bytes(users[msg.sender].email).length == 0, \"User already exists!\"); // Check if user already exists\r\n\r\n        users[msg.sender] = User(_name, _email, _password);\r\n    }\r\n\r\n    // Function to get user details\r\n    function getUser(address _address) public view returns (string memory, string memory, string memory) {\r\n        User memory user = users[_address];\r\n        return (user.name, user.email, user.password);\r\n    }\r\n\r\n    // Function to check if a user exists\r\n    function userExists() public view returns (bool) {\r\n        return bytes(users[msg.sender].email).length > 0;\r\n    }\r\n\r\n    // Function to log in a user\r\n    function loginUser(string memory _email, string memory _password) public view returns (bool) {\r\n        // Check if the user exists\r\n        require(bytes(users[msg.sender].email).length > 0, \"User does not exist!\");\r\n\r\n        // Check if the email and password match\r\n        User memory user = users[msg.sender];\r\n        require(keccak256(abi.encodePacked(user.email)) == keccak256(abi.encodePacked(_email)), \"Invalid email!\");\r\n        require(keccak256(abi.encodePacked(user.password)) == keccak256(abi.encodePacked(_password)), \"Invalid password!\");\r\n\r\n        return true; // Login successful\r\n    }\r\n}\r\n",
  "sourcePath": "C:\\Users\\Hp\\Desktop\\signup-dapp\\contracts\\Login.sol",
  "compiler": {
    "name": "solc",
    "version": "0.8.19+commit.7dd6d404.Emscripten.clang"
  },
  "schemaVersion": "3.4.13",
  "updatedAt": "2024-08-28T09:21:38.222Z",
  "networkType": "ethereum",
  "devdoc": {
    "kind": "dev",
    "methods": {},
    "version": 1
  },
  "userdoc": {
    "kind": "user",
    "methods": {},
    "version": 1
  }
}