{
  "contractName": "Login",
  "abi": [
    {
      "inputs": [
        {
          "internalType": "address",
          "name": "",
          "type": "address"
        }
      ],
      "name": "users",
      "outputs": [
        {
          "internalType": "string",
          "name": "name",
          "type": "string"
        },
        {
          "internalType": "string",
          "name": "email",
          "type": "string"
        },
        {
          "internalType": "string",
          "name": "password",
          "type": "string"
        }
      ],
      "stateMutability": "view",
      "type": "function",
      "constant": true
    },
    {
      "inputs": [
        {
          "internalType": "string",
          "name": "_email",
          "type": "string"
        },
        {
          "internalType": "string",
          "name": "_password",
          "type": "string"
        }
      ],
      "name": "loginUser",
      "outputs": [
        {
          "internalType": "bool",
          "name": "",
          "type": "bool"
        }
      ],
      "stateMutability": "view",
      "type": "function",
      "constant": true
    }
  ],
  "bytecode": "0x608060405234801561001057600080fd5b50610bad806100206000396000f3fe608060405234801561001057600080fd5b50600436106100365760003560e01c806322ce12e51461003b578063a87430ba1461006b575b600080fd5b6100556004803603810190610050919061077c565b61009d565b604051610062919061080f565b60405180910390f35b61008560048036038101906100809190610888565b610460565b60405161009493929190610934565b60405180910390f35b6000806000803373ffffffffffffffffffffffffffffffffffffffff1673ffffffffffffffffffffffffffffffffffffffff16815260200190815260200160002060010180546100ec906109af565b90501161012e576040517f08c379a000000000000000000000000000000000000000000000000000000000815260040161012590610a2c565b60405180910390fd5b60008060003373ffffffffffffffffffffffffffffffffffffffff1673ffffffffffffffffffffffffffffffffffffffff168152602001908152602001600020604051806060016040529081600082018054610189906109af565b80601f01602080910402602001604051908101604052809291908181526020018280546101b5906109af565b80156102025780601f106101d757610100808354040283529160200191610202565b820191906000526020600020905b8154815290600101906020018083116101e557829003601f168201915b5050505050815260200160018201805461021b906109af565b80601f0160208091040260200160405190810160405280929190818152602001828054610247906109af565b80156102945780601f1061026957610100808354040283529160200191610294565b820191906000526020600020905b81548152906001019060200180831161027757829003601f168201915b505050505081526020016002820180546102ad906109af565b80601f01602080910402602001604051908101604052809291908181526020018280546102d9906109af565b80156103265780601f106102fb57610100808354040283529160200191610326565b820191906000526020600020905b81548152906001019060200180831161030957829003601f168201915b5050505050815250509050836040516020016103429190610a88565b60405160208183030381529060405280519060200120816020015160405160200161036d9190610a88565b60405160208183030381529060405280519060200120146103c3576040517f08c379a00000000000000000000000000000000000000000000000000000000081526004016103ba90610aeb565b60405180910390fd5b826040516020016103d49190610a88565b6040516020818303038152906040528051906020012081604001516040516020016103ff9190610a88565b6040516020818303038152906040528051906020012014610455576040517f08c379a000000000000000000000000000000000000000000000000000000000815260040161044c90610b57565b60405180910390fd5b600191505092915050565b6000602052806000526040600020600091509050806000018054610483906109af565b80601f01602080910402602001604051908101604052809291908181526020018280546104af906109af565b80156104fc5780601f106104d1576101008083540402835291602001916104fc565b820191906000526020600020905b8154815290600101906020018083116104df57829003601f168201915b505050505090806001018054610511906109af565b80601f016020809104026020016040519081016040528092919081815260200182805461053d906109af565b801561058a5780601f1061055f5761010080835404028352916020019161058a565b820191906000526020600020905b81548152906001019060200180831161056d57829003601f168201915b50505050509080600201805461059f906109af565b80601f01602080910402602001604051908101604052809291908181526020018280546105cb906109af565b80156106185780601f106105ed57610100808354040283529160200191610618565b820191906000526020600020905b8154815290600101906020018083116105fb57829003601f168201915b5050505050905083565b6000604051905090565b600080fd5b600080fd5b600080fd5b600080fd5b6000601f19601f8301169050919050565b7f4e487b7100000000000000000000000000000000000000000000000000000000600052604160045260246000fd5b61068982610640565b810181811067ffffffffffffffff821117156106a8576106a7610651565b5b80604052505050565b60006106bb610622565b90506106c78282610680565b919050565b600067ffffffffffffffff8211156106e7576106e6610651565b5b6106f082610640565b9050602081019050919050565b82818337600083830152505050565b600061071f61071a846106cc565b6106b1565b90508281526020810184848401111561073b5761073a61063b565b5b6107468482856106fd565b509392505050565b600082601f83011261076357610762610636565b5b813561077384826020860161070c565b91505092915050565b600080604083850312156107935761079261062c565b5b600083013567ffffffffffffffff8111156107b1576107b0610631565b5b6107bd8582860161074e565b925050602083013567ffffffffffffffff8111156107de576107dd610631565b5b6107ea8582860161074e565b9150509250929050565b60008115159050919050565b610809816107f4565b82525050565b60006020820190506108246000830184610800565b92915050565b600073ffffffffffffffffffffffffffffffffffffffff82169050919050565b60006108558261082a565b9050919050565b6108658161084a565b811461087057600080fd5b50565b6000813590506108828161085c565b92915050565b60006020828403121561089e5761089d61062c565b5b60006108ac84828501610873565b91505092915050565b600081519050919050565b600082825260208201905092915050565b60005b838110156108ef5780820151818401526020810190506108d4565b60008484015250505050565b6000610906826108b5565b61091081856108c0565b93506109208185602086016108d1565b61092981610640565b840191505092915050565b6000606082019050818103600083015261094e81866108fb565b9050818103602083015261096281856108fb565b9050818103604083015261097681846108fb565b9050949350505050565b7f4e487b7100000000000000000000000000000000000000000000000000000000600052602260045260246000fd5b600060028204905060018216806109c757607f821691505b6020821081036109da576109d9610980565b5b50919050565b7f5573657220646f6573206e6f7420657869737421000000000000000000000000600082015250565b6000610a166014836108c0565b9150610a21826109e0565b602082019050919050565b60006020820190508181036000830152610a4581610a09565b9050919050565b600081905092915050565b6000610a62826108b5565b610a6c8185610a4c565b9350610a7c8185602086016108d1565b80840191505092915050565b6000610a948284610a57565b915081905092915050565b7f496e76616c696420656d61696c21000000000000000000000000000000000000600082015250565b6000610ad5600e836108c0565b9150610ae082610a9f565b602082019050919050565b60006020820190508181036000830152610b0481610ac8565b9050919050565b7f496e76616c69642070617373776f726421000000000000000000000000000000600082015250565b6000610b416011836108c0565b9150610b4c82610b0b565b602082019050919050565b60006020820190508181036000830152610b7081610b34565b905091905056fea26469706673582212202430d6094e8fdae2127e7a1aaaa7c079d95593717c3409eb776447e8ae39784164736f6c63430008130033",
  "immutableReferences": {},
  "source": "// SPDX-License-Identifier: MIT\r\npragma solidity ^0.8.0;\r\n\r\ncontract Login {\r\n    struct User {\r\n        string name;\r\n        string email;\r\n        string password;\r\n    }\r\n\r\n    mapping(address => User) public users;\r\n\r\n    // Function to register a new user\r\n    // function registerUser(string memory _name, string memory _email, string memory _password) public {\r\n    //     require(bytes(users[msg.sender].email).length == 0, \"User already exists!\"); // Check if user already exists\r\n\r\n    //     users[msg.sender] = User(_name, _email, _password);\r\n    // }\r\n\r\n    // Function to get user details\r\n    // function getUser(address _address) public view returns (string memory, string memory, string memory) {\r\n    //     User memory user = users[_address];\r\n    //     return (user.name, user.email, user.password);\r\n    // }\r\n\r\n    // Function to check if a user exists\r\n    // function userExists() public view returns (bool) {\r\n    //     return bytes(users[msg.sender].email).length > 0;\r\n    // }\r\n\r\n    // Function to log in a user\r\n    function loginUser(string memory _email, string memory _password) public view returns (bool) {\r\n        // Check if the user exists\r\n        require(bytes(users[msg.sender].email).length > 0, \"User does not exist!\");\r\n\r\n        // Check if the email and password match\r\n        User memory user = users[msg.sender];\r\n        require(keccak256(abi.encodePacked(user.email)) == keccak256(abi.encodePacked(_email)), \"Invalid email!\");\r\n        require(keccak256(abi.encodePacked(user.password)) == keccak256(abi.encodePacked(_password)), \"Invalid password!\");\r\n\r\n        return true; // Login successful\r\n    }\r\n}\r\n",
  "sourcePath": "C:\\Users\\Hp\\Desktop\\signup-dapp\\contracts\\Login.sol",
  "compiler": {
    "name": "solc",
    "version": "0.8.19+commit.7dd6d404.Emscripten.clang"
  },
  "schemaVersion": "3.4.13",
  "updatedAt": "2024-08-29T05:14:15.400Z",
  "networkType": "ethereum",
  "devdoc": {
    "kind": "dev",
    "methods": {},
    "version": 1
  },
  "userdoc": {
    "kind": "user",
    "methods": {},
    "version": 1
  }
}