{
  "contractName": "Signup",
  "abi": [
    {
      "inputs": [
        {
          "internalType": "address",
          "name": "",
          "type": "address"
        }
      ],
      "name": "users",
      "outputs": [
        {
          "internalType": "string",
          "name": "name",
          "type": "string"
        },
        {
          "internalType": "string",
          "name": "email",
          "type": "string"
        },
        {
          "internalType": "string",
          "name": "password",
          "type": "string"
        }
      ],
      "stateMutability": "view",
      "type": "function",
      "constant": true
    },
    {
      "inputs": [
        {
          "internalType": "string",
          "name": "_name",
          "type": "string"
        },
        {
          "internalType": "string",
          "name": "_email",
          "type": "string"
        },
        {
          "internalType": "string",
          "name": "_password",
          "type": "string"
        }
      ],
      "name": "registerUser",
      "outputs": [],
      "stateMutability": "nonpayable",
      "type": "function"
    },
    {
      "inputs": [
        {
          "internalType": "address",
          "name": "_address",
          "type": "address"
        }
      ],
      "name": "getUser",
      "outputs": [
        {
          "internalType": "string",
          "name": "",
          "type": "string"
        },
        {
          "internalType": "string",
          "name": "",
          "type": "string"
        },
        {
          "internalType": "string",
          "name": "",
          "type": "string"
        }
      ],
      "stateMutability": "view",
      "type": "function",
      "constant": true
    },
    {
      "inputs": [
        {
          "internalType": "address",
          "name": "_address",
          "type": "address"
        }
      ],
      "name": "userExists",
      "outputs": [
        {
          "internalType": "bool",
          "name": "",
          "type": "bool"
        }
      ],
      "stateMutability": "view",
      "type": "function",
      "constant": true
    }
  ],
  "bytecode": "0x608060405234801561001057600080fd5b50610d8b806100206000396000f3fe608060405234801561001057600080fd5b506004361061004c5760003560e01c80630e666e49146100515780636f77926b14610081578063a87430ba146100b3578063d637dcfa146100e5575b600080fd5b61006b600480360381019061006691906106e6565b610101565b604051610078919061072e565b60405180910390f35b61009b600480360381019061009691906106e6565b61015a565b6040516100aa939291906107d9565b60405180910390f35b6100cd60048036038101906100c891906106e6565b61037f565b6040516100dc939291906107d9565b60405180910390f35b6100ff60048036038101906100fa919061095a565b610541565b005b6000806000808473ffffffffffffffffffffffffffffffffffffffff1673ffffffffffffffffffffffffffffffffffffffff168152602001908152602001600020600101805461015090610a30565b9050119050919050565b606080606060008060008673ffffffffffffffffffffffffffffffffffffffff1673ffffffffffffffffffffffffffffffffffffffff1681526020019081526020016000206040518060600160405290816000820180546101ba90610a30565b80601f01602080910402602001604051908101604052809291908181526020018280546101e690610a30565b80156102335780601f1061020857610100808354040283529160200191610233565b820191906000526020600020905b81548152906001019060200180831161021657829003601f168201915b5050505050815260200160018201805461024c90610a30565b80601f016020809104026020016040519081016040528092919081815260200182805461027890610a30565b80156102c55780601f1061029a576101008083540402835291602001916102c5565b820191906000526020600020905b8154815290600101906020018083116102a857829003601f168201915b505050505081526020016002820180546102de90610a30565b80601f016020809104026020016040519081016040528092919081815260200182805461030a90610a30565b80156103575780601f1061032c57610100808354040283529160200191610357565b820191906000526020600020905b81548152906001019060200180831161033a57829003601f168201915b5050505050815250509050806000015181602001518260400151935093509350509193909250565b60006020528060005260406000206000915090508060000180546103a290610a30565b80601f01602080910402602001604051908101604052809291908181526020018280546103ce90610a30565b801561041b5780601f106103f05761010080835404028352916020019161041b565b820191906000526020600020905b8154815290600101906020018083116103fe57829003601f168201915b50505050509080600101805461043090610a30565b80601f016020809104026020016040519081016040528092919081815260200182805461045c90610a30565b80156104a95780601f1061047e576101008083540402835291602001916104a9565b820191906000526020600020905b81548152906001019060200180831161048c57829003601f168201915b5050505050908060020180546104be90610a30565b80601f01602080910402602001604051908101604052809291908181526020018280546104ea90610a30565b80156105375780601f1061050c57610100808354040283529160200191610537565b820191906000526020600020905b81548152906001019060200180831161051a57829003601f168201915b5050505050905083565b60008060003373ffffffffffffffffffffffffffffffffffffffff1673ffffffffffffffffffffffffffffffffffffffff168152602001908152602001600020600101805461058f90610a30565b9050146105d1576040517f08c379a00000000000000000000000000000000000000000000000000000000081526004016105c890610aad565b60405180910390fd5b6040518060600160405280848152602001838152602001828152506000803373ffffffffffffffffffffffffffffffffffffffff1673ffffffffffffffffffffffffffffffffffffffff168152602001908152602001600020600082015181600001908161063f9190610c83565b5060208201518160010190816106559190610c83565b50604082015181600201908161066b9190610c83565b50905050505050565b6000604051905090565b600080fd5b600080fd5b600073ffffffffffffffffffffffffffffffffffffffff82169050919050565b60006106b382610688565b9050919050565b6106c3816106a8565b81146106ce57600080fd5b50565b6000813590506106e0816106ba565b92915050565b6000602082840312156106fc576106fb61067e565b5b600061070a848285016106d1565b91505092915050565b60008115159050919050565b61072881610713565b82525050565b6000602082019050610743600083018461071f565b92915050565b600081519050919050565b600082825260208201905092915050565b60005b83811015610783578082015181840152602081019050610768565b60008484015250505050565b6000601f19601f8301169050919050565b60006107ab82610749565b6107b58185610754565b93506107c5818560208601610765565b6107ce8161078f565b840191505092915050565b600060608201905081810360008301526107f381866107a0565b9050818103602083015261080781856107a0565b9050818103604083015261081b81846107a0565b9050949350505050565b600080fd5b600080fd5b7f4e487b7100000000000000000000000000000000000000000000000000000000600052604160045260246000fd5b6108678261078f565b810181811067ffffffffffffffff821117156108865761088561082f565b5b80604052505050565b6000610899610674565b90506108a5828261085e565b919050565b600067ffffffffffffffff8211156108c5576108c461082f565b5b6108ce8261078f565b9050602081019050919050565b82818337600083830152505050565b60006108fd6108f8846108aa565b61088f565b9050828152602081018484840111156109195761091861082a565b5b6109248482856108db565b509392505050565b600082601f83011261094157610940610825565b5b81356109518482602086016108ea565b91505092915050565b6000806000606084860312156109735761097261067e565b5b600084013567ffffffffffffffff81111561099157610990610683565b5b61099d8682870161092c565b935050602084013567ffffffffffffffff8111156109be576109bd610683565b5b6109ca8682870161092c565b925050604084013567ffffffffffffffff8111156109eb576109ea610683565b5b6109f78682870161092c565b9150509250925092565b7f4e487b7100000000000000000000000000000000000000000000000000000000600052602260045260246000fd5b60006002820490506001821680610a4857607f821691505b602082108103610a5b57610a5a610a01565b5b50919050565b7f5573657220616c72656164792065786973747321000000000000000000000000600082015250565b6000610a97601483610754565b9150610aa282610a61565b602082019050919050565b60006020820190508181036000830152610ac681610a8a565b9050919050565b60008190508160005260206000209050919050565b60006020601f8301049050919050565b600082821b905092915050565b600060088302610b2f7fffffffffffffffffffffffffffffffffffffffffffffffffffffffffffffffff82610af2565b610b398683610af2565b95508019841693508086168417925050509392505050565b6000819050919050565b6000819050919050565b6000610b80610b7b610b7684610b51565b610b5b565b610b51565b9050919050565b6000819050919050565b610b9a83610b65565b610bae610ba682610b87565b848454610aff565b825550505050565b600090565b610bc3610bb6565b610bce818484610b91565b505050565b5b81811015610bf257610be7600082610bbb565b600181019050610bd4565b5050565b601f821115610c3757610c0881610acd565b610c1184610ae2565b81016020851015610c20578190505b610c34610c2c85610ae2565b830182610bd3565b50505b505050565b600082821c905092915050565b6000610c5a60001984600802610c3c565b1980831691505092915050565b6000610c738383610c49565b9150826002028217905092915050565b610c8c82610749565b67ffffffffffffffff811115610ca557610ca461082f565b5b610caf8254610a30565b610cba828285610bf6565b600060209050601f831160018114610ced5760008415610cdb578287015190505b610ce58582610c67565b865550610d4d565b601f198416610cfb86610acd565b60005b82811015610d2357848901518255600182019150602085019450602081019050610cfe565b86831015610d405784890151610d3c601f891682610c49565b8355505b6001600288020188555050505b50505050505056fea264697066735822122027ae8b65521d87657114580f20d54984ac9f0538d4ea3ea8890bc7849224b0f264736f6c63430008130033",
  "immutableReferences": {},
  "source": "// // SPDX-License-Identifier: MIT\r\n// pragma solidity ^0.8.0;\r\n\r\n// contract Signup {\r\n//     struct User {\r\n//         string name;\r\n//         string email;\r\n//         string password;\r\n//     }\r\n\r\n//     mapping(address => User) public users;\r\n\r\n//     function registerUser(string memory _name, string memory _email, string memory _password) public {\r\n//         users[msg.sender] = User(_name, _email, _password);\r\n//     }\r\n\r\n//     function getUser(address _address) public view returns (string memory, string memory, string memory) {\r\n//         User memory user = users[_address];\r\n//         return (user.name, user.email, user.password);\r\n//     }\r\n\r\n    \r\n// }\r\n\r\n\r\npragma solidity ^0.8.0;\r\n\r\ncontract Signup {\r\n    struct User {\r\n        string name;\r\n        string email;\r\n        string password;\r\n    }\r\n\r\n    mapping(address => User) public users;\r\n\r\n    // Function to register a new user\r\n    function registerUser(string memory _name, string memory _email, string memory _password) public {\r\n        require(bytes(users[msg.sender].email).length == 0, \"User already exists!\"); // Check if user already exists\r\n\r\n        users[msg.sender] = User(_name, _email, _password);\r\n    }\r\n\r\n    // Function to get user details by address\r\n    function getUser(address _address) public view returns (string memory, string memory, string memory) {\r\n        User memory user = users[_address];\r\n        return (user.name, user.email, user.password);\r\n    }\r\n\r\n    // Function to check if a user exists by address\r\n    function userExists(address _address) public view returns (bool) {\r\n        return bytes(users[_address].email).length > 0; // Check if the email field is not empty\r\n    }\r\n}\r\n",
  "sourcePath": "C:\\Users\\Hp\\Desktop\\signup-dapp\\contracts\\Signup.sol",
  "compiler": {
    "name": "solc",
    "version": "0.8.19+commit.7dd6d404.Emscripten.clang"
  },
  "schemaVersion": "3.4.13",
  "updatedAt": "2024-08-28T09:21:38.215Z",
  "networkType": "ethereum",
  "devdoc": {
    "kind": "dev",
    "methods": {},
    "version": 1
  },
  "userdoc": {
    "kind": "user",
    "methods": {},
    "version": 1
  }
}